{
  "_format": "hh-sol-artifact-1",
  "contractName": "FundMe",
  "sourceName": "contracts/FundMe.sol",
  "abi": [
    {
      "inputs": [
        {
          "internalType": "uint256",
          "name": "_lockTime",
          "type": "uint256"
        }
      ],
      "stateMutability": "nonpayable",
      "type": "constructor"
    },
    {
      "inputs": [],
      "name": "fund",
      "outputs": [],
      "stateMutability": "payable",
      "type": "function"
    },
    {
      "inputs": [
        {
          "internalType": "address",
          "name": "",
          "type": "address"
        }
      ],
      "name": "funderToAmount",
      "outputs": [
        {
          "internalType": "uint256",
          "name": "",
          "type": "uint256"
        }
      ],
      "stateMutability": "view",
      "type": "function"
    },
    {
      "inputs": [],
      "name": "getChainlinkDataFeedLatestAnswer",
      "outputs": [
        {
          "internalType": "int256",
          "name": "",
          "type": "int256"
        }
      ],
      "stateMutability": "view",
      "type": "function"
    },
    {
      "inputs": [],
      "name": "getFund",
      "outputs": [],
      "stateMutability": "nonpayable",
      "type": "function"
    },
    {
      "inputs": [],
      "name": "getFundSuccess",
      "outputs": [
        {
          "internalType": "bool",
          "name": "",
          "type": "bool"
        }
      ],
      "stateMutability": "view",
      "type": "function"
    },
    {
      "inputs": [],
      "name": "owner",
      "outputs": [
        {
          "internalType": "address",
          "name": "",
          "type": "address"
        }
      ],
      "stateMutability": "view",
      "type": "function"
    },
    {
      "inputs": [],
      "name": "refund",
      "outputs": [],
      "stateMutability": "nonpayable",
      "type": "function"
    },
    {
      "inputs": [
        {
          "internalType": "address",
          "name": "_erc20Addr",
          "type": "address"
        }
      ],
      "name": "setErc20Addr",
      "outputs": [],
      "stateMutability": "nonpayable",
      "type": "function"
    },
    {
      "inputs": [
        {
          "internalType": "address",
          "name": "funder",
          "type": "address"
        },
        {
          "internalType": "uint256",
          "name": "ammountToUpdate",
          "type": "uint256"
        }
      ],
      "name": "setFunderToAmount",
      "outputs": [],
      "stateMutability": "nonpayable",
      "type": "function"
    },
    {
      "inputs": [
        {
          "internalType": "address",
          "name": "newOwner",
          "type": "address"
        }
      ],
      "name": "transferOwnership",
      "outputs": [],
      "stateMutability": "nonpayable",
      "type": "function"
    }
  ],
  "bytecode": "0x608060405268056bc75e2d631000006002556000600660146101000a81548160ff02191690831515021790555034801561003857600080fd5b5060405161154b38038061154b833981810160405281019061005a919061013f565b73694aa1769357215de4fac081bf1f309adc325306600160006101000a81548173ffffffffffffffffffffffffffffffffffffffff021916908373ffffffffffffffffffffffffffffffffffffffff16021790555033600360006101000a81548173ffffffffffffffffffffffffffffffffffffffff021916908373ffffffffffffffffffffffffffffffffffffffff16021790555042600481905550806005819055505061016c565b600080fd5b6000819050919050565b61011c81610109565b811461012757600080fd5b50565b60008151905061013981610113565b92915050565b60006020828403121561015557610154610104565b5b60006101638482850161012a565b91505092915050565b6113d08061017b6000396000f3fe6080604052600436106100915760003560e01c8063b60d428811610059578063b60d428814610155578063bea4dfb51461015f578063d39cf0061461018a578063da4658e0146101b3578063f2fde38b146101de57610091565b806313ffff01146100965780634407e1e8146100bf578063590e1ae3146100fc5780638da5cb5b146101135780638edd6eb61461013e575b600080fd5b3480156100a257600080fd5b506100bd60048036038101906100b89190610b5b565b610207565b005b3480156100cb57600080fd5b506100e660048036038101906100e19190610b5b565b6102db565b6040516100f39190610ba1565b60405180910390f35b34801561010857600080fd5b506101116102f3565b005b34801561011f57600080fd5b5061012861051a565b6040516101359190610bcb565b60405180910390f35b34801561014a57600080fd5b50610153610540565b005b61015d610786565b005b34801561016b57600080fd5b50610174610869565b6040516101819190610bff565b60405180910390f35b34801561019657600080fd5b506101b160048036038101906101ac9190610c46565b61090a565b005b3480156101bf57600080fd5b506101c86109e1565b6040516101d59190610ca1565b60405180910390f35b3480156101ea57600080fd5b5061020560048036038101906102009190610b5b565b6109f4565b005b600360009054906101000a900473ffffffffffffffffffffffffffffffffffffffff1673ffffffffffffffffffffffffffffffffffffffff163373ffffffffffffffffffffffffffffffffffffffff1614610297576040517f08c379a000000000000000000000000000000000000000000000000000000000815260040161028e90610d3f565b60405180910390fd5b80600660006101000a81548173ffffffffffffffffffffffffffffffffffffffff021916908373ffffffffffffffffffffffffffffffffffffffff16021790555050565b60006020528060005260406000206000915090505481565b6005546004546103039190610d8e565b421015610345576040517f08c379a000000000000000000000000000000000000000000000000000000000815260040161033c90610e0e565b60405180910390fd5b600047905060008060003373ffffffffffffffffffffffffffffffffffffffff1673ffffffffffffffffffffffffffffffffffffffff168152602001908152602001600020549050683635c9adc5dea000006103a083610ac8565b106103e0576040517f08c379a00000000000000000000000000000000000000000000000000000000081526004016103d790610e7a565b60405180910390fd5b60008111610423576040517f08c379a000000000000000000000000000000000000000000000000000000000815260040161041a90610ee6565b60405180910390fd5b60003373ffffffffffffffffffffffffffffffffffffffff168260405161044990610f37565b60006040518083038185875af1925050503d8060008114610486576040519150601f19603f3d011682016040523d82523d6000602084013e61048b565b606091505b505080915050806104d1576040517f08c379a00000000000000000000000000000000000000000000000000000000081526004016104c890610f98565b60405180910390fd5b60008060003373ffffffffffffffffffffffffffffffffffffffff1673ffffffffffffffffffffffffffffffffffffffff16815260200190815260200160002081905550505050565b600360009054906101000a900473ffffffffffffffffffffffffffffffffffffffff1681565b6005546004546105509190610d8e565b421015610592576040517f08c379a000000000000000000000000000000000000000000000000000000000815260040161058990610e0e565b60405180910390fd5b600360009054906101000a900473ffffffffffffffffffffffffffffffffffffffff1673ffffffffffffffffffffffffffffffffffffffff163373ffffffffffffffffffffffffffffffffffffffff1614610622576040517f08c379a000000000000000000000000000000000000000000000000000000000815260040161061990610d3f565b60405180910390fd5b683635c9adc5dea0000061063547610ac8565b1015610676576040517f08c379a000000000000000000000000000000000000000000000000000000000815260040161066d90611004565b60405180910390fd5b60003373ffffffffffffffffffffffffffffffffffffffff164760405161069c90610f37565b60006040518083038185875af1925050503d80600081146106d9576040519150601f19603f3d011682016040523d82523d6000602084013e6106de565b606091505b50508091505080610724576040517f08c379a000000000000000000000000000000000000000000000000000000000815260040161071b90611070565b60405180910390fd5b60008060003373ffffffffffffffffffffffffffffffffffffffff1673ffffffffffffffffffffffffffffffffffffffff168152602001908152602001600020819055506001600660146101000a81548160ff02191690831515021790555050565b60025461079234610ac8565b10156107d3576040517f08c379a00000000000000000000000000000000000000000000000000000000081526004016107ca906110dc565b60405180910390fd5b6005546004546107e39190610d8e565b4210610824576040517f08c379a000000000000000000000000000000000000000000000000000000000815260040161081b90611148565b60405180910390fd5b346000803373ffffffffffffffffffffffffffffffffffffffff1673ffffffffffffffffffffffffffffffffffffffff16815260200190815260200160002081905550565b600080600160009054906101000a900473ffffffffffffffffffffffffffffffffffffffff1673ffffffffffffffffffffffffffffffffffffffff1663feaf968c6040518163ffffffff1660e01b815260040160a060405180830381865afa1580156108d9573d6000803e3d6000fd5b505050506040513d601f19601f820116820180604052508101906108fd91906111eb565b5050509150508091505090565b600660009054906101000a900473ffffffffffffffffffffffffffffffffffffffff1673ffffffffffffffffffffffffffffffffffffffff163373ffffffffffffffffffffffffffffffffffffffff161461099a576040517f08c379a0000000000000000000000000000000000000000000000000000000008152600401610991906112d8565b60405180910390fd5b806000808473ffffffffffffffffffffffffffffffffffffffff1673ffffffffffffffffffffffffffffffffffffffff168152602001908152602001600020819055505050565b600660149054906101000a900460ff1681565b600360009054906101000a900473ffffffffffffffffffffffffffffffffffffffff1673ffffffffffffffffffffffffffffffffffffffff163373ffffffffffffffffffffffffffffffffffffffff1614610a84576040517f08c379a0000000000000000000000000000000000000000000000000000000008152600401610a7b90610d3f565b60405180910390fd5b80600360006101000a81548173ffffffffffffffffffffffffffffffffffffffff021916908373ffffffffffffffffffffffffffffffffffffffff16021790555050565b600080610ad3610869565b90506305f5e1008184610ae691906112f8565b610af09190611369565b915050919050565b600080fd5b600073ffffffffffffffffffffffffffffffffffffffff82169050919050565b6000610b2882610afd565b9050919050565b610b3881610b1d565b8114610b4357600080fd5b50565b600081359050610b5581610b2f565b92915050565b600060208284031215610b7157610b70610af8565b5b6000610b7f84828501610b46565b91505092915050565b6000819050919050565b610b9b81610b88565b82525050565b6000602082019050610bb66000830184610b92565b92915050565b610bc581610b1d565b82525050565b6000602082019050610be06000830184610bbc565b92915050565b6000819050919050565b610bf981610be6565b82525050565b6000602082019050610c146000830184610bf0565b92915050565b610c2381610b88565b8114610c2e57600080fd5b50565b600081359050610c4081610c1a565b92915050565b60008060408385031215610c5d57610c5c610af8565b5b6000610c6b85828601610b46565b9250506020610c7c85828601610c31565b9150509250929050565b60008115159050919050565b610c9b81610c86565b82525050565b6000602082019050610cb66000830184610c92565b92915050565b600082825260208201905092915050565b7f746869732066756e6374696f6e2063616e206f6e6c792062652063616c6c656460008201527f206279206f776e65720000000000000000000000000000000000000000000000602082015250565b6000610d29602983610cbc565b9150610d3482610ccd565b604082019050919050565b60006020820190508181036000830152610d5881610d1c565b9050919050565b7f4e487b7100000000000000000000000000000000000000000000000000000000600052601160045260246000fd5b6000610d9982610b88565b9150610da483610b88565b9250828201905080821115610dbc57610dbb610d5f565b5b92915050565b7f77696e646f77206973206e6f7420636c6f736564000000000000000000000000600082015250565b6000610df8601483610cbc565b9150610e0382610dc2565b602082019050919050565b60006020820190508181036000830152610e2781610deb565b9050919050565b7f5461726765742069732072656163686564000000000000000000000000000000600082015250565b6000610e64601183610cbc565b9150610e6f82610e2e565b602082019050919050565b60006020820190508181036000830152610e9381610e57565b9050919050565b7f796f752066756e64206973206e6f7420656e6f75676800000000000000000000600082015250565b6000610ed0601683610cbc565b9150610edb82610e9a565b602082019050919050565b60006020820190508181036000830152610eff81610ec3565b9050919050565b600081905092915050565b50565b6000610f21600083610f06565b9150610f2c82610f11565b600082019050919050565b6000610f4282610f14565b9150819050919050565b7f7472616e73666572207478206661696c65640000000000000000000000000000600082015250565b6000610f82601283610cbc565b9150610f8d82610f4c565b602082019050919050565b60006020820190508181036000830152610fb181610f75565b9050919050565b7f546172676574206973206e6f7420726561636865640000000000000000000000600082015250565b6000610fee601583610cbc565b9150610ff982610fb8565b602082019050919050565b6000602082019050818103600083015261101d81610fe1565b9050919050565b7f74726173666572207478206661696c6564000000000000000000000000000000600082015250565b600061105a601183610cbc565b915061106582611024565b602082019050919050565b600060208201905081810360008301526110898161104d565b9050919050565b7f506c656173652073656e64206d6f726520455448000000000000000000000000600082015250565b60006110c6601483610cbc565b91506110d182611090565b602082019050919050565b600060208201905081810360008301526110f5816110b9565b9050919050565b7f77696e646f7720697320636c6f73656400000000000000000000000000000000600082015250565b6000611132601083610cbc565b915061113d826110fc565b602082019050919050565b6000602082019050818103600083015261116181611125565b9050919050565b600069ffffffffffffffffffff82169050919050565b61118781611168565b811461119257600080fd5b50565b6000815190506111a48161117e565b92915050565b6111b381610be6565b81146111be57600080fd5b50565b6000815190506111d0816111aa565b92915050565b6000815190506111e581610c1a565b92915050565b600080600080600060a0868803121561120757611206610af8565b5b600061121588828901611195565b9550506020611226888289016111c1565b9450506040611237888289016111d6565b9350506060611248888289016111d6565b925050608061125988828901611195565b9150509295509295909350565b7f796f7520646f206e6f742068617665207065726d697373696f6e20746f20636160008201527f6c6c20746869732066756e6374696f6e00000000000000000000000000000000602082015250565b60006112c2603083610cbc565b91506112cd82611266565b604082019050919050565b600060208201905081810360008301526112f1816112b5565b9050919050565b600061130382610b88565b915061130e83610b88565b925082820261131c81610b88565b9150828204841483151761133357611332610d5f565b5b5092915050565b7f4e487b7100000000000000000000000000000000000000000000000000000000600052601260045260246000fd5b600061137482610b88565b915061137f83610b88565b92508261138f5761138e61133a565b5b82820490509291505056fea2646970667358221220c4a19ff29e6e6fc5b24f69f5fb69492ee04b8d31dace24ce68da45bd6efd100a64736f6c634300081b0033",
  "linkReferences": {},
  "deployedLinkReferences": {}
}